:020000022000DC
:1060000000000420A9630200E5630200E7630200C8
:10601000E9630200EB630200ED6302000000000090
:10602000000000000000000000000000EF6302001C
:10603000F163020000000000F3630200F563020058
:10604000F7630200F7630200F7630200F7630200E0
:10605000F7630200F7630200F7630200F7630200D0
:10606000F7630200F7630200F7630200F7630200C0
:10607000F7630200F7630200F7630200F7630200B0
:10608000F7630200F7630200F7630200F7630200A0
:10609000F7630200F7630200F7630200F763020090
:1060A000F7630200F7630200F7630200F763020080
:1060B000F7630200F7630200000000000000000028
:1060C000F7630200F7630200F7630200F763020060
:1060D000F7630200F7630200F7630200F763020050
:1060E000F7630200F7630200F7630200000000009C
:1060F00000000000F763020000000000F7630200E8
:10610000000000000000000000000000000000008F
:10611000000000000000000000000000000000007F
:10612000000000000000000000000000000000006F
:10613000000000000000000000000000000000005F
:10614000000000000000000000000000000000004F
:10615000000000000000000000000000000000003F
:10616000000000000000000000000000000000002F
:10617000000000000000000000000000000000001F
:10618000000000000000000000000000000000000F
:1061900000000000000000000000000000000000FF
:1061A00000000000000000000000000000000000EF
:1061B00000000000000000000000000000000000DF
:1061C00000000000000000000000000000000000CF
:1061D00000000000000000000000000000000000BF
:1061E00000000000000000000000000000000000AF
:1061F000000000000000000000000000000000009F
:10620000024AD2F80034002BFBD0704700E0014076
:1062100000F1102310B51C68631C09D00549064A1B
:106220000B6822F8330002EBC302013354600B60A9
:1062300010BD00BF040000200800002010B500EBD6
:106240008104FFF7E5FF0430A042FAD110BD000041
:1062500030B40B4B0B4A19680023994201D130BC72
:10626000704732F83350854202EBC30406D100F187
:1062700010206368036030BCFFF7C2BF0133ECE756
:1062800004000020080000204FF080435722C3F88C
:106290001C25BFF34F8FBFF34F8F0549054BCA68CD
:1062A00002F4E0621343CB60BFF34F8F00BFFDE702
:1062B00000ED00E00400FA054FF0102380B5D3F89C
:1062C0000C4214F0010401D0FFF7DEFF0D21142071
:1062D000FFF7B4FF0C215020FFF7B0FF20218020F2
:1062E000FFF7ACFF02214FF40070FFF7A7FF4FF458
:1062F0000270FFF78DFF4FF40470FFF789FF4FF432
:106300004170FFF785FF2549254F0223C1F8043569
:106310000120FFF775FFC1F81405FFF771FFC1F801
:106320000445FFF76DFFC1F804051420FFF768FF6F
:10633000FFF78EFF1820FFF78BFF1A492546084606
:106340003E68B5420ED3154B0022C3F80425FFF773
:1063500057FF4FF01023D3F80C32DB071AD472B674
:1063600020BFFDE70388142B07D0182B05D003F1BD
:10637000102342681A60FFF743FF01350830DFE75A
:1063800031F8083B03F110231A6851F8043C9A4293
:10639000E5D10134B442F3D196E700BF00E00140FB
:1063A00004000020080000200A490B4A0B4B9B1AEE
:1063B00003DD043BC858D050FBDC0849084A0020E4
:1063C000521A02DD043A8850FCDC00F021F8FFF795
:1063D00073FF000060650200000000200400002040
:1063E00038020020FEE7FEE7FEE7FEE7FEE7FEE7F5
:1063F000FEE7FEE7FEE7FEE74FF08053D3E94C30BF
:10640000002808BF082B0CBF0120002070470000A7
:1064100008B54FF08053D3F83021082A4ED14FF001
:1064200080420021C2F80C11C2F81011C2F83815D0
:1064300002F54042D3F80414C2F82015D3F808142A
:10644000C2F82415D3F80C14C2F82815D3F8101488
:10645000C2F82C15D3F81414C2F83015D3F8181458
:10646000C2F83415D3F81C14C2F84015D3F8201420
:10647000C2F84415D3F82414C2F84815D3F82814E8
:10648000C2F84C15D3F82C14C2F85015D3F83014B8
:10649000C2F85415D3F83414C2F86015D3F8381480
:1064A000C2F86415D3F83C14C2F86815D3F8401448
:1064B000C2F86C15D3F84434C2F87035FFF79CFF6E
:1064C00018B1204B204AC3F88C26FFF795FF18B16E
:1064D0001E4BFB22C3F81825FFF78EFF58B14FF073
:1064E00080424FF08051D2F8E43ED1F8581261F367
:1064F0000303C2F8E43EFFF77FFF20B1144B4FF4D3
:106500000072C3F840264FF08053D3F83031082B87
:1065100009D14FF08043D3F80024D20744BF6FF075
:106520000102C3F800240B4AD2F8883043F4700308
:10653000C2F88830BFF34F8FBFF36F8F064B074A07
:106540001A6008BD005000404881030000F0004080
:106550000090024000ED00E0000000200090D00319
:046560000090D003D4
:04000003200063A9CD
:00000001FF
